{
  "contractName": "DappToken",
  "abi": [
    {
      "inputs": [],
      "payable": false,
      "stateMutability": "nonpayable",
      "type": "constructor"
    },
    {
      "constant": true,
      "inputs": [],
      "name": "totalSupply",
      "outputs": [
        {
          "internalType": "uint256",
          "name": "",
          "type": "uint256"
        }
      ],
      "payable": false,
      "stateMutability": "view",
      "type": "function"
    }
  ],
  "bytecode": "0x6080604052348015600f57600080fd5b50620f42406000819055506084806100286000396000f3fe6080604052348015600f57600080fd5b506004361060285760003560e01c806318160ddd14602d575b600080fd5b60336049565b6040518082815260200191505060405180910390f35b6000548156fea265627a7a72315820fe96370347f5ca3a97ceca5ce79c46cbed791e393e4f35eca8665668a11e893464736f6c63430005100032",
  "source": "pragma solidity >=0.4.22 <0.9.0;\n\ncontract DappToken{\n\n    uint256 public totalSupply; //public visibility means get function is free, name from ERC20\n\n    //Consctructor run any time the contract is deployed\n    constructor() public {\n        totalSupply = 1000000; //state variable - accessible to entire contract\n    }\n    //Set total number of tokens\n\n    //Read number of tokens\n\n}",
  "sourcePath": "/Users/Rachel/Dropbox/Edinburgh MSc/Blockchain/test_truffle_token/contracts/DappToken.sol",
  "compiler": {
    "name": "solc",
    "version": "0.5.16+commit.9c3226ce.Emscripten.clang"
  },
  "schemaVersion": "3.3.3",
  "updatedAt": "2020-12-22T20:33:59.672Z",
  "networkType": "ethereum",
  "devdoc": {
    "methods": {}
  },
  "userdoc": {
    "methods": {}
  }
}